{
  "_format": "hh-sol-artifact-1",
  "contractName": "Wave",
  "sourceName": "contracts/Wave.sol",
  "abi": [
    {
      "inputs": [],
      "stateMutability": "payable",
      "type": "constructor"
    },
    {
      "anonymous": false,
      "inputs": [
        {
          "indexed": true,
          "internalType": "address",
          "name": "from",
          "type": "address"
        },
        {
          "indexed": false,
          "internalType": "uint256",
          "name": "timestamp",
          "type": "uint256"
        },
        {
          "indexed": false,
          "internalType": "string",
          "name": "_message",
          "type": "string"
        }
      ],
      "name": "NewWave",
      "type": "event"
    },
    {
      "inputs": [],
      "name": "getAllWaves",
      "outputs": [
        {
          "components": [
            {
              "internalType": "address",
              "name": "waver",
              "type": "address"
            },
            {
              "internalType": "string",
              "name": "message",
              "type": "string"
            },
            {
              "internalType": "uint256",
              "name": "timestamp",
              "type": "uint256"
            }
          ],
          "internalType": "struct Wave.Wave[]",
          "name": "",
          "type": "tuple[]"
        }
      ],
      "stateMutability": "view",
      "type": "function"
    },
    {
      "inputs": [],
      "name": "getTotalWaves",
      "outputs": [
        {
          "internalType": "uint256",
          "name": "",
          "type": "uint256"
        }
      ],
      "stateMutability": "view",
      "type": "function"
    },
    {
      "inputs": [
        {
          "internalType": "address",
          "name": "",
          "type": "address"
        }
      ],
      "name": "lastMsgAt",
      "outputs": [
        {
          "internalType": "uint256",
          "name": "",
          "type": "uint256"
        }
      ],
      "stateMutability": "view",
      "type": "function"
    },
    {
      "inputs": [
        {
          "internalType": "string",
          "name": "_message",
          "type": "string"
        }
      ],
      "name": "wave",
      "outputs": [],
      "stateMutability": "nonpayable",
      "type": "function"
    }
  ],
  "bytecode": "0x60806040526200004f6040518060400160405280601781526020017f457979204269646461202c5965204d65726120416464610000000000000000008152506200007760201b6200067c1760201c565b606444426200005f9190620001c4565b6200006b919062000261565b60018190555062000308565b62000117816040516024016200008e919062000184565b6040516020818303038152906040527f41304fac000000000000000000000000000000000000000000000000000000007bffffffffffffffffffffffffffffffffffffffffffffffffffffffff19166020820180517bffffffffffffffffffffffffffffffffffffffffffffffffffffffff83818316178352505050506200011a60201b60201c565b50565b60008151905060006a636f6e736f6c652e6c6f679050602083016000808483855afa5050505050565b60006200015082620001a8565b6200015c8185620001b3565b93506200016e8185602086016200022b565b6200017981620002f7565b840191505092915050565b60006020820190508181036000830152620001a0818462000143565b905092915050565b600081519050919050565b600082825260208201905092915050565b6000620001d18262000221565b9150620001de8362000221565b9250827fffffffffffffffffffffffffffffffffffffffffffffffffffffffffffffffff0382111562000216576200021562000299565b5b828201905092915050565b6000819050919050565b60005b838110156200024b5780820151818401526020810190506200022e565b838111156200025b576000848401525b50505050565b60006200026e8262000221565b91506200027b8362000221565b9250826200028e576200028d620002c8565b5b828206905092915050565b7f4e487b7100000000000000000000000000000000000000000000000000000000600052601160045260246000fd5b7f4e487b7100000000000000000000000000000000000000000000000000000000600052601260045260246000fd5b6000601f19601f8301169050919050565b61122280620003186000396000f3fe608060405234801561001057600080fd5b506004361061004c5760003560e01c80632d3b051d14610051578063449d46c0146100815780639a2cdc081461009d578063bd43a908146100bb575b600080fd5b61006b60048036038101906100669190610a35565b6100d9565b6040516100789190610e10565b60405180910390f35b61009b60048036038101906100969190610a5e565b6100f1565b005b6100a56104e0565b6040516100b29190610e10565b60405180910390f35b6100c361052b565b6040516100d09190610cc7565b60405180910390f35b60036020528060005260406000206000915090505481565b42601e600360003373ffffffffffffffffffffffffffffffffffffffff1673ffffffffffffffffffffffffffffffffffffffff1681526020019081526020016000205461013e9190610f22565b1061017e576040517f08c379a000000000000000000000000000000000000000000000000000000000815260040161017590610dd0565b60405180910390fd5b42600360003373ffffffffffffffffffffffffffffffffffffffff1673ffffffffffffffffffffffffffffffffffffffff1681526020019081526020016000208190555060016000808282546101d49190610f22565b9250508190555061021b6040518060400160405280601f81526020017f2573206861732077617665642120616e642074657874656420617320257720008152503383610715565b600260405180606001604052803373ffffffffffffffffffffffffffffffffffffffff16815260200183815260200142815250908060018154018082558091505060019003906000526020600020906003020160009091909190915060008201518160000160006101000a81548173ffffffffffffffffffffffffffffffffffffffff021916908373ffffffffffffffffffffffffffffffffffffffff16021790555060208201518160010190805190602001906102da929190610915565b50604082015181600201555050606444426102f59190610f22565b6102ff9190611059565b6001819055506103466040518060400160405280601581526020017f52616e646f6d20232047656e65726174656420256400000000000000000000008152506001546107b4565b60146001541161048d5761038f6040518060400160405280600b81526020017f25732068617320776f6e2100000000000000000000000000000000000000000081525033610850565b600066038d7ea4c680009050478111156103de576040517f08c379a00000000000000000000000000000000000000000000000000000000081526004016103d590610db0565b60405180910390fd5b60003373ffffffffffffffffffffffffffffffffffffffff168260405161040490610cb2565b60006040518083038185875af1925050503d8060008114610441576040519150601f19603f3d011682016040523d82523d6000602084013e610446565b606091505b505090508061048a576040517f08c379a000000000000000000000000000000000000000000000000000000000815260040161048190610df0565b60405180910390fd5b50505b3373ffffffffffffffffffffffffffffffffffffffff167f5f7e16dc676677766a70e9c5628aa6c54ddb8b6e5188e2ae1e1f17f1ffbea71642836040516104d5929190610e2b565b60405180910390a250565b60006105236040518060400160405280600d81526020017f544f54414c2057415645533a20000000000000000000000000000000000000008152506000546107b4565b600054905090565b60606002805480602002602001604051908101604052809291908181526020016000905b8282101561067357838290600052602060002090600302016040518060600160405290816000820160009054906101000a900473ffffffffffffffffffffffffffffffffffffffff1673ffffffffffffffffffffffffffffffffffffffff1673ffffffffffffffffffffffffffffffffffffffff1681526020016001820180546105d890610ff6565b80601f016020809104026020016040519081016040528092919081815260200182805461060490610ff6565b80156106515780601f1061062657610100808354040283529160200191610651565b820191906000526020600020905b81548152906001019060200180831161063457829003601f168201915b505050505081526020016002820154815250508152602001906001019061054f565b50505050905090565b610712816040516024016106909190610ce9565b6040516020818303038152906040527f41304fac000000000000000000000000000000000000000000000000000000007bffffffffffffffffffffffffffffffffffffffffffffffffffffffff19166020820180517bffffffffffffffffffffffffffffffffffffffffffffffffffffffff83818316178352505050506108ec565b50565b6107af83838360405160240161072d93929190610d3b565b6040516020818303038152906040527fe0e9ad4f000000000000000000000000000000000000000000000000000000007bffffffffffffffffffffffffffffffffffffffffffffffffffffffff19166020820180517bffffffffffffffffffffffffffffffffffffffffffffffffffffffff83818316178352505050506108ec565b505050565b61084c82826040516024016107ca929190610d80565b6040516020818303038152906040527f9710a9d0000000000000000000000000000000000000000000000000000000007bffffffffffffffffffffffffffffffffffffffffffffffffffffffff19166020820180517bffffffffffffffffffffffffffffffffffffffffffffffffffffffff83818316178352505050506108ec565b5050565b6108e88282604051602401610866929190610d0b565b6040516020818303038152906040527f319af333000000000000000000000000000000000000000000000000000000007bffffffffffffffffffffffffffffffffffffffffffffffffffffffff19166020820180517bffffffffffffffffffffffffffffffffffffffffffffffffffffffff83818316178352505050506108ec565b5050565b60008151905060006a636f6e736f6c652e6c6f679050602083016000808483855afa5050505050565b82805461092190610ff6565b90600052602060002090601f016020900481019282610943576000855561098a565b82601f1061095c57805160ff191683800117855561098a565b8280016001018555821561098a579182015b8281111561098957825182559160200191906001019061096e565b5b509050610997919061099b565b5090565b5b808211156109b457600081600090555060010161099c565b5090565b60006109cb6109c684610e80565b610e5b565b9050828152602081018484840111156109e357600080fd5b6109ee848285610fb4565b509392505050565b600081359050610a05816111d5565b92915050565b600082601f830112610a1c57600080fd5b8135610a2c8482602086016109b8565b91505092915050565b600060208284031215610a4757600080fd5b6000610a55848285016109f6565b91505092915050565b600060208284031215610a7057600080fd5b600082013567ffffffffffffffff811115610a8a57600080fd5b610a9684828501610a0b565b91505092915050565b6000610aab8383610c44565b905092915050565b610abc81610f78565b82525050565b610acb81610f78565b82525050565b6000610adc82610ec1565b610ae68185610ee4565b935083602082028501610af885610eb1565b8060005b85811015610b345784840389528151610b158582610a9f565b9450610b2083610ed7565b925060208a01995050600181019050610afc565b50829750879550505050505092915050565b6000610b5182610ecc565b610b5b8185610f00565b9350610b6b818560208601610fc3565b610b7481611146565b840191505092915050565b6000610b8a82610ecc565b610b948185610f11565b9350610ba4818560208601610fc3565b610bad81611146565b840191505092915050565b6000610bc5601483610f11565b9150610bd082611157565b602082019050919050565b6000610be8600a83610f11565b9150610bf382611180565b602082019050919050565b6000610c0b601a83610f11565b9150610c16826111a9565b602082019050919050565b6000610c2e600083610ef5565b9150610c39826111d2565b600082019050919050565b6000606083016000830151610c5c6000860182610ab3565b5060208301518482036020860152610c748282610b46565b9150506040830151610c896040860182610c94565b508091505092915050565b610c9d81610faa565b82525050565b610cac81610faa565b82525050565b6000610cbd82610c21565b9150819050919050565b60006020820190508181036000830152610ce18184610ad1565b905092915050565b60006020820190508181036000830152610d038184610b7f565b905092915050565b60006040820190508181036000830152610d258185610b7f565b9050610d346020830184610ac2565b9392505050565b60006060820190508181036000830152610d558186610b7f565b9050610d646020830185610ac2565b8181036040830152610d768184610b7f565b9050949350505050565b60006040820190508181036000830152610d9a8185610b7f565b9050610da96020830184610ca3565b9392505050565b60006020820190508181036000830152610dc981610bb8565b9050919050565b60006020820190508181036000830152610de981610bdb565b9050919050565b60006020820190508181036000830152610e0981610bfe565b9050919050565b6000602082019050610e256000830184610ca3565b92915050565b6000604082019050610e406000830185610ca3565b8181036020830152610e528184610b7f565b90509392505050565b6000610e65610e76565b9050610e718282611028565b919050565b6000604051905090565b600067ffffffffffffffff821115610e9b57610e9a611117565b5b610ea482611146565b9050602081019050919050565b6000819050602082019050919050565b600081519050919050565b600081519050919050565b6000602082019050919050565b600082825260208201905092915050565b600081905092915050565b600082825260208201905092915050565b600082825260208201905092915050565b6000610f2d82610faa565b9150610f3883610faa565b9250827fffffffffffffffffffffffffffffffffffffffffffffffffffffffffffffffff03821115610f6d57610f6c61108a565b5b828201905092915050565b6000610f8382610f8a565b9050919050565b600073ffffffffffffffffffffffffffffffffffffffff82169050919050565b6000819050919050565b82818337600083830152505050565b60005b83811015610fe1578082015181840152602081019050610fc6565b83811115610ff0576000848401525b50505050565b6000600282049050600182168061100e57607f821691505b60208210811415611022576110216110e8565b5b50919050565b61103182611146565b810181811067ffffffffffffffff821117156110505761104f611117565b5b80604052505050565b600061106482610faa565b915061106f83610faa565b92508261107f5761107e6110b9565b5b828206905092915050565b7f4e487b7100000000000000000000000000000000000000000000000000000000600052601160045260246000fd5b7f4e487b7100000000000000000000000000000000000000000000000000000000600052601260045260246000fd5b7f4e487b7100000000000000000000000000000000000000000000000000000000600052602260045260246000fd5b7f4e487b7100000000000000000000000000000000000000000000000000000000600052604160045260246000fd5b6000601f19601f8301169050919050565b7f496e73756666696369656e742062616c616e6365000000000000000000000000600082015250565b7f5761697420333073656300000000000000000000000000000000000000000000600082015250565b7f4661696c656420746f2073656e64207072697a65416d6f756e74000000000000600082015250565b50565b6111de81610f78565b81146111e957600080fd5b5056fea2646970667358221220bd70ce65930198294aaf687c4999585a1c19f7dc33d77090039b9f2ea381617964736f6c63430008040033",
  "linkReferences": {},
  "deployedLinkReferences": {}
}